1TRANS20150224  792ANNUITIES APP/SUB/CX0001  10230079201       0000000492DTCCCDT 20150224   07:01    RDT 20150224   07:01                                                                                                                                                                                   
B300057201502240645240001        20150224ANC0AnnuityNet3                        0057Edward Jones                                                                    PRM000000000283P                                                                                                                        
B324503Protective Life Insurance          4503Protective Life Insurance          APP00000000090000000009CPL                                                                                                                                                                                                 
B330100570150217000463974INA2015021774367T1810000000011000000TK00000000000000000000000000385000                               Y ORUSA 2000B10Y    Y     20150224065038    0000000011000000                                                                                                                  
B330300570150217000463974                              46691591                      A             N                                                                                                                                                                                                        
B33040057015021700046397400570150480000376152CLH                 0000000000385000 POIC000370747                 INA   0000000010615000                                                                                                                   0000000000000000                                   
B330600570150217000463974Q4 0000000011000000                                                                                                                                                                                                                                                                
B33100057015021700046397474367T181BAMOD     0000000000000000 1000000000           0000000000                                                                                                                                                                                                                
B331700570150217000463974HA C000001   XEDWARD D JONES & CO CUSTODIAN                                                                                                                                                       430345811           FIUS                                                         
B33180057015021700046397465000000   1                                                                                                                                                                                                                                                                       
B331900570150217000463974                 H 8640 S RIVER PARKWAY                                                                                     TEMPE                         AZ85284          US                                                                                                      
B332100570150217000463974FT                  P                                                                                                                                                                                                                                                              
B331700570150217000463974G2 1000002   NELIZABETH                                         HITT                                                                                                                              536602553           34US 19520830222                                             
B33180057015021700046397465000001 F 1                                                                                                                                                                                                                                                                       
B331900570150217000463974                 H 32756 BERLIN RD                                                                                          LEBANON                       OR973559400      US                                                                                                      
B332000570150217000463974HP5412594994                                                                                                                                                                                                                                                                       
B332200570150217000463974P430345811           FIXEDWARD D JONES & CO                                                                                                                                                                 R2                                                                     
B33230057015021700046397465                                      0000000000000000 P11000000000                                                                                                                                                                                                              
B332700570150217000463974PA 1                                                                        0000031000000000                                                      NDOUG                                              PHILLIPS                                                                      
B333000570150217000463974541960588                     34  420221                        24                                                                                                                                                                                                                 
B333100570150217000463974FT                  P                                                                                                                                                                                                                                                              
B333200570150217000463974Optional Death Benefit                                           00000            DB6                                                                                     0000000000000000       00                                 Optional Death Benef                           
B333200570150217000463974SecurePay Guaranteed Withdrawal Ben                              00000            GWBFX5S                                                                                 0000000000000000       00                                 SecurePay Guaranteed                           
B333200570150217000463974Complex Asset Allocation                                         00000            CAA                                                                                     0000000000000000       00                                 Complex Asset Alloca                           
B333500570150217000463974                    0000000000000000000000000074367T181MGI09          00000000000000001000000000                                                                                                                                                                                   
B333200570150217000463974Portfolio Rebalancing (Current Allo            20150801        0100000           SAR                                                                                      0000000000000000       00                                 Portfolio Rebalancin                           
B333500570150217000463974                    0000000000000000000000000074367T181MGI09          00000000000000001000000000                                                                                                                                                                                   
B334400570150217000463974463974                        00000103 Y0000                                                                                                                                                                                                                                       
B330100570150223000470717INA2015022374367T1810000000005000000TK00000000000000000000000000225000                               Y KYUSA 2000B10N    N     20150224065038    0000000005000000                                                                                                                  
B330300570150223000470717                              55681200                      A             N                                                                                                                                                                                                        
B33040057015022300047071700570150540000381161CLH                 0000000000225000 POIC000376261                 INA   0000000004775000                                                                                                                   0000000000000000                                   
B330600570150223000470717Q4 0000000005000000                                                                                                                                                                                                                                                                
B33100057015022300047071774367T181DCA1M     0000000000000000 1000000000           0000000000    0000000000                                                                                                                                                                                                  
B331700570150223000470717HA C000001   XEDWARD D JONES & CO CUSTODIAN                                                                                                                                                       430345811           FIUS                                                         
B33180057015022300047071765000000   1                                                                                                                                                                                                                                                                       
B331900570150223000470717                 H 8640 S RIVER PARKWAY                                                                                     TEMPE                         AZ85284          US                                                                                                      
B332100570150223000470717FT                  P                                                                                                                                                                                                                                                              
B331700570150223000470717G2 1000002   NNina                                              McCowan                                                                                                                           405808492           34US 19540123222                                             
B33180057015022300047071765000001 F 1                                                                                                                                                                                                                                                                       
B331900570150223000470717                 H 100 Douglas St                                                                                           Stanford                      KY404849575      US                                                                                                      
B332200570150223000470717P430345811           FIXEDWARD D JONES & CO                                                                                                                                                                 R2                                                                     
B33230057015022300047071765                                      0000000000000000 P11000000000                                                                                                                                                                                                              
B332700570150223000470717PA 1                                                                        0000031000000000                                                      NJARED                                             LONG                                                                          
B333000570150223000470717404392261                     34  431433                        24                                                                                                                                                                                                                 
B333100570150223000470717FT                  P                                                                                                                                                                                                                                                              
B333200570150223000470717Optional Death Benefit                                           00000            DB6                                                                                     0000000000000000       00                                 Optional Death Benef                           
B333200570150223000470717SecurePay Guaranteed Withdrawal Ben                              00000            GWBFX5S                                                                                 0000000000000000       00                                 SecurePay Guaranteed                           
B333200570150223000470717Complex Asset Allocation                                         00000            CAA                                                                                     0000000000000000       00                                 Complex Asset Alloca                           
B333500570150223000470717                    0000000000000000000000000074367T181MMG09          00000000000000001000000000                                                                                                                                                                                   
B333200570150223000470717Special Dollar Cost Averaging                  20150224        2400006MO         4DA2                                                                                     0000000000000000       00                                 Special Dollar Cost                            
B33350057015022300047071774367T181DCA1M      00000000000000001000000000                        00000000000000000000000000                                                                                                                                                                                   
B333500570150223000470717                    0000000000000000000000000074367T181MMG09          00000000000000001000000000                                                                                                                                                                                   
B333200570150223000470717Portfolio Rebalancing (Current Allo            20150224        2400000           QAR                                                                                      0000000000000000       00                                 Portfolio Rebalancin                           
B333500570150223000470717                    0000000000000000000000000074367T181DCA1M          00000000000000001000000000                                                                                                                                                                                   
B334400570150223000470717470717                        00000103 Y0000                                                                                                                                                                                                                                       
B330100570150223000468539INA2015022374367T1810000000001950000Q200000000000000000000000000000000                               Y OHUSA 2010B10Y    Y     20150224065038    0000000001950000                                                                                                                  
B330300570150223000468539                              67018550                      A             N                                                                                                                                                                                                        
B33040057015022300046853900570150540000379554EXC                 0000000000000000 POIC000374487                 INA   0000000000000000                                                                                                                   0000000001950000                                   
B330600570150223000468539Q2 0000000001950000     N                                                                                                                                                                                                                                                          
B33100057015022300046853974367T181DCA1M     0000000000000000 1000000000           0000000000    0000000000                                                                                                                                                                                                  
B331300570150223000468539ZZXXXXXXXXXXXXXXXXXXXXMetropolitan Life Insurance Company666818289A                                       0000000001950000 0000000000000000 0000000000000000 19660801                                                                                                              
B331500570150223000468539                                  NSAMUEL                   D                        BESKET                                                                                                                            000001290384373           34HA 1                            
B331700570150223000468539OK 1000002   NSAMUEL                   D                        BESKET                                                                                                                            290384373           34US 19440825222                                             
B33180057015022300046853967000002 M 1                                                                                                                                                                                                                                                                       
B331900570150223000468539                 H 221B S 7th St                                                                                            Byesville                     OH437231163      US                                                                                                      
B332100570150223000468539FT                  P                                                                                                                                                                                                                                                              
B332200570150223000468539P                      XTHE BESKET FAMILY TRUST                                                                                                                                                              2                                                                     
B33230057015022300046853965                              200409140000000000000000 P11000000000222                                                                                                                                                                                                           
B332700570150223000468539PA 1                                                                        0000031000000000                                                      NJEREMY                                            FLEMING                                                                       
B333000570150223000468539283902612                     34  420696                        24                                                                                                                                                                                                                 
B333100570150223000468539FT                  P                                                                                                                                                                                                                                                              
B333200570150223000468539Optional Death Benefit                                           00000            DB6                                                                                     0000000000000000       00                                 Optional Death Benef                           
B333200570150223000468539SecurePay Guaranteed Withdrawal Ben                              00000            GWBFX5S                                                                                 0000000000000000       00                                 SecurePay Guaranteed                           
B333200570150223000468539Complex Asset Allocation                                         00000            CAA                                                                                     0000000000000000       00                                 Complex Asset Alloca                           
B333500570150223000468539                    0000000000000000000000000074367T181MMG09          00000000000000001000000000                                                                                                                                                                                   
B333200570150223000468539Special Dollar Cost Averaging                  20150302        0200006MO         4DA2                                                                                     0000000000000000       00                                 Special Dollar Cost                            
B33350057015022300046853974367T181DCA1M      00000000000000001000000000                        00000000000000000000000000                                                                                                                                                                                   
B333500570150223000468539                    0000000000000000000000000074367T181MMG09          00000000000000001000000000                                                                                                                                                                                   
B333200570150223000468539Portfolio Rebalancing (Current Allo            20150401        0100000           QAR                                                                                      0000000000000000       00                                 Portfolio Rebalancin                           
B333500570150223000468539                    0000000000000000000000000074367T181DCA1M          00000000000000001000000000                                                                                                                                                                                   
B334400570150223000468539468539                        00000103 Y0000                                                                                                                                                                                                                                       
B330100570150223000470122INA2015022374367T1810000000010000000TK00000000000000000000000000350000                               Y COUSA 2010B10N    N     20150224065038    0000000010000000                                                                                                                  
B330300570150223000470122                              40917454                      A             N                                                                                                                                                                                                        
B33040057015022300047012200570150540000380719CLH                 0000000000350000 POIC000376221                 INA   0000000009650000                                                                                                                   0000000000000000                                   
B33060057015022300047012293 0000000010000000                                                                                                                                                                                                                                                                
B33100057015022300047012274367T181DCA1M     0000000000000000 1000000000           0000000000    0000000000                                                                                                                                                                                                  
B331700570150223000470122OK 1000001   NDarell                   L                        Doane                                                                                                                             524706314           34US 19500224222                                             
B33180057015022300047012267000001 M 1                                                                                                                                                                                                                                                                       
B331900570150223000470122                 H 1402 Windjammer Dr                                                                                       Windsor                       CO805506208      US                                                                                                      
B332100570150223000470122FT                  P                                                                                                                                                                                                                                                              
B332200570150223000470122P521117195           34NAngelika                                          Doane                                                                                                                              1                                                                     
B33230057015022300047012243                              195410030000000000000000 P11000000000222F                                                                                                                                                                                                          
B332700570150223000470122PA 1                                                                        0000021000000000                                                      NROBERT                                            FLOOD                                                                         
B333000570150223000470122065583833                     34  523069                        24                                                                                                                                                                                                                 
B333100570150223000470122FT                  P                                                                                                                                                                                                                                                              
B333200570150223000470122Optional Death Benefit                                           00000            DB6                                                                                     0000000000000000       00                                 Optional Death Benef                           
B333200570150223000470122SecurePay Guaranteed Withdrawal Ben                              00000            GWBFX5S                                                                                 0000000000000000       00                                 SecurePay Guaranteed                           
B333200570150223000470122Complex Asset Allocation                                         00000            CAA                                                                                     0000000000000000       00                                 Complex Asset Alloca                           
B333500570150223000470122                    0000000000000000000000000074367T181MGI09          00000000000000001000000000                                                                                                                                                                                   
B333200570150223000470122Special Dollar Cost Averaging                  20150316        1600006MO         4DA2                                                                                     0000000000000000       00                                 Special Dollar Cost                            
B33350057015022300047012274367T181DCA1M      00000000000000001000000000                        00000000000000000000000000                                                                                                                                                                                   
B333500570150223000470122                    0000000000000000000000000074367T181MGI09          00000000000000001000000000                                                                                                                                                                                   
B333200570150223000470122Portfolio Rebalancing (Current Allo            20150401        0100000           QAR                                                                                      0000000000000000       00                                 Portfolio Rebalancin                           
B333500570150223000470122                    0000000000000000000000000074367T181DCA1M          00000000000000001000000000                                                                                                                                                                                   
B334400570150223000470122470122                        00000103 Y0000                                                                                                                                                                                                                                       
B330100570150223000466991INA2015022374367T1810000000015000000TK00000000000000000000000000525000                               Y ARUSA 2000B10N    N     20150224065038    0000000015000000                                                                                                                  
B330300570150223000466991                              61480950                      A             N                                                                                                                                                                                                        
B33040057015022300046699100570150540000378411CLH                 0000000000525000 POIC000373384                 INA   0000000014475000                                                                                                                   0000000000000000                                   
B330600570150223000466991Q4 0000000015000000                                                                                                                                                                                                                                                                
B33100057015022300046699174367T181DCA2M     0000000000000000 1000000000           0000000000    0000000000                                                                                                                                                                                                  
B331700570150223000466991HA C000001   XEDWARD D JONES & CO CUSTODIAN                                                                                                                                                       430345811           FIUS                                                         
B33180057015022300046699165000000   1                                                                                                                                                                                                                                                                       
B331900570150223000466991                 H 8640 S RIVER PARKWAY                                                                                     TEMPE                         AZ85284          US                                                                                                      
B331900570150223000466991                 M Judith Ann Ritchie                 1942 Helen Street                                                     Fayetteville                  AR72701          US                                                                                                      
B332000570150223000466991HP4792008124                                                                                                                                                                                                                                                                       
B332100570150223000466991FT                  P                                                                                                                                                                                                                                                              
B331700570150223000466991G2 1000002   NJudith                   A                        Ritchie                                                                                                                           432840723           34US 19470323222                                             
B33180057015022300046699165000001 F 1                                                                                                                                                                                                                                                                       
B331900570150223000466991                 H 1942 Helen Street                                                                                        Fayetteville                  AR727017301      US                                                                                                      
B332000570150223000466991HP4792008124                                                                                                                                                                                                                                                                       
B332200570150223000466991P430345811           FIXEDWARD D JONES & CO                                                                                                                                                                 R2                                                                     
B33230057015022300046699165                                      0000000000000000 P11000000000                                                                                                                                                                                                              
B332700570150223000466991PA 1                                                                        0000031000000000                                                      NLIZ                                               QUESENBERRY                                                                   
B333000570150223000466991410532325                     34  307098                        24                                                                                                                                                                                                                 
B333100570150223000466991FT                  P                                                                                                                                                                                                                                                              
B333200570150223000466991Optional Death Benefit                                           00000            DB6                                                                                     0000000000000000       00                                 Optional Death Benef                           
B333200570150223000466991SecurePay Guaranteed Withdrawal Ben                              00000            GWBFX5S                                                                                 0000000000000000       00                                 SecurePay Guaranteed                           
B333200570150223000466991Complex Asset Allocation                                         00000            CAA                                                                                     0000000000000000       00                                 Complex Asset Alloca                           
B333500570150223000466991                    0000000000000000000000000074367T181MGI09          00000000000000001000000000                                                                                                                                                                                   
B333200570150223000466991Special Dollar Cost Averaging                  20150218        1800012MO         4DA2                                                                                     0000000000000000       00                                 Special Dollar Cost                            
B33350057015022300046699174367T181DCA2M      00000000000000001000000000                        00000000000000000000000000                                                                                                                                                                                   
B333500570150223000466991                    0000000000000000000000000074367T181MGI09          00000000000000001000000000                                                                                                                                                                                   
B333200570150223000466991Portfolio Rebalancing (Current Allo            20150223        2300000           7AR                                                                                      0000000000000000       00                                 Portfolio Rebalancin                           
B333500570150223000466991                    0000000000000000000000000074367T181DCA2M          00000000000000001000000000                                                                                                                                                                                   
B334400570150223000466991466991                        00000103 Y0000                                                                                                                                                                                                                                       
B330100570150223000469144INA2015022374367T1810000000018882400TK00000000000000000000000000660884                                 WAUSA 2000B10N    N     20150224065038    0000000018882400                                                                                                                  
B330300570150223000469144                              44099691                      A             N                                                                                                                                                                                                        
B33040057015022300046914400570150540000380012CLH                 0000000000660884 POIC000374977                 INA   0000000018221516                                                                                                                   0000000000000000                                   
B330600570150223000469144Q4 0000000018882400                                                                                                                                                                                                                                                                
B33100057015022300046914474367T181DCA1M     0000000000000000 1000000000           0000000000    0000000000                                                                                                                                                                                                  
B331700570150223000469144HA C000001   XEDWARD D JONES & CO CUSTODIAN                                                                                                                                                       430345811           FIUS                                                         
B33180057015022300046914465000000   1                                                                                                                                                                                                                                                                       
B331900570150223000469144                 H 8640 S RIVER PARKWAY                                                                                     TEMPE                         AZ85284          US                                                                                                      
B332100570150223000469144FT                  P                                                                                                                                                                                                                                                              
B331700570150223000469144G2 1000002   NNORMAN                   P                        MOSS                                                                                                                              536448307           34US 19490203222                                             
B33180057015022300046914465000001 M 1                                                                                                                                                                                                                                                                       
B331900570150223000469144                 H 13809 e 42nd ave                                                                                         SPOKANE                       WA992069388      US                                                                                                      
B332200570150223000469144P430345811           FIXEDWARD D JONES & CO                                                                                                                                                                 R2                                                                     
B33230057015022300046914465                                      0000000000000000 P11000000000                                                                                                                                                                                                              
B332700570150223000469144PA 1                                                                        0000031000000000                                                      NTYRONE                                            BARBERY                                                                       
B333000570150223000469144590342533                     34  503521                        24                                                                                                                                                                                                                 
B333100570150223000469144FT                  P                                                                                                                                                                                                                                                              
B333200570150223000469144Optional Death Benefit                                           00000            DB6                                                                                     0000000000000000       00                                 Optional Death Benef                           
B333200570150223000469144SecurePay Guaranteed Withdrawal Ben                              00000            GWBFX5S                                                                                 0000000000000000       00                                 SecurePay Guaranteed                           
B333200570150223000469144Complex Asset Allocation                                         00000            CAA                                                                                     0000000000000000       00                                 Complex Asset Alloca                           
B333500570150223000469144                    0000000000000000000000000074367T181MMG09          00000000000000001000000000                                                                                                                                                                                   
B333200570150223000469144Special Dollar Cost Averaging                  20150223        2300006MO         4DA2                                                                                     0000000000000000       00                                 Special Dollar Cost                            
B33350057015022300046914474367T181DCA1M      00000000000000001000000000                        00000000000000000000000000                                                                                                                                                                                   
B333500570150223000469144                    0000000000000000000000000074367T181MMG09          00000000000000001000000000                                                                                                                                                                                   
B333200570150223000469144Portfolio Rebalancing (Current Allo            20150301        0100000           QAR                                                                                      0000000000000000       00                                 Portfolio Rebalancin                           
B333500570150223000469144                    0000000000000000000000000074367T181DCA1M          00000000000000001000000000                                                                                                                                                                                   
B330100570150223000468906INA2015022374367T1810000000006500000TK00000000000000000000000000292500                               Y MEUSA 2010B10Y    Y     20150224065038    0000000006500000                                                                                                                  
B330300570150223000468906                              65612232                      A             N                                                                                                                                                                                                        
B33040057015022300046890600570150540000379844CLH                 0000000000292500 POIC000374943                 INA   0000000006207500                                                                                                                   0000000000000000                                   
B33060057015022300046890693 0000000006500000                                                                                                                                                                                                                                                                
B33100057015022300046890674367T181DCA1M     0000000000000000 1000000000           0000000000    0000000000                                                                                                                                                                                                  
B331700570150223000468906OK 1000001   NJEANNE                                            LETOURNEAU                                                                                                                        004442626           34US 19430105222                                             
B33180057015022300046890667000001 F 1                                                                                                                                                                                                                                                                       
B331900570150223000468906                 H 90 POTTLE HILL ROAD                                                                                      MINOT                         ME042584800      US                                                                                                      
B332000570150223000468906HP2073455871                                                hemlet43@yahoo.com                                                              BT                                                                                                                                     
B332100570150223000468906FT                  P                                                                                                                                                                                                                                                              
B332200570150223000468906P006266926           34NGermain                                           Letourneau                                                                                                                         1                                                                     
B33230057015022300046890642                              193109140000000000000000 P11000000000222MTE2073455871                                                                                                                                                                                              
B33240057015022300046890690 Pottle Hill Rd                                                                                        Minot                         ME04258          US                                                                                                                         
B332700570150223000468906PA 1                                                                        0000021000000000                                                      NSETH                                              CARLSON                                                                       
B333000570150223000468906004846037                     34  515278                        24                                                                                                                                                                                                                 
B333100570150223000468906FT                  P                                                                                                                                                                                                                                                              
B333200570150223000468906Optional Death Benefit                                           00000            DB6                                                                                     0000000000000000       00                                 Optional Death Benef                           
B333200570150223000468906SecurePay Guaranteed Withdrawal Ben                              00000            GWBFX5S                                                                                 0000000000000000       00                                 SecurePay Guaranteed                           
B333200570150223000468906Complex Asset Allocation                                         00000            CAA                                                                                     0000000000000000       00                                 Complex Asset Alloca                           
B333500570150223000468906                    0000000000000000000000000074367T181MGI09          00000000000000001000000000                                                                                                                                                                                   
B333200570150223000468906Special Dollar Cost Averaging                  20150219        1900006MO         4DA2                                                                                     0000000000000000       00                                 Special Dollar Cost                            
B33350057015022300046890674367T181DCA1M      00000000000000001000000000                        00000000000000000000000000                                                                                                                                                                                   
B333500570150223000468906                    0000000000000000000000000074367T181MGI09          00000000000000001000000000                                                                                                                                                                                   
B333200570150223000468906Portfolio Rebalancing (Current Allo            20160219        1900000           7AR                                                                                      0000000000000000       00                                 Portfolio Rebalancin                           
B333500570150223000468906                    0000000000000000000000000074367T181DCA1M          00000000000000001000000000                                                                                                                                                                                   
B334400570150223000468906468906                        00000103 Y0000                                                                                                                                                                                                                                       
B330100570150223000467589INA2015022374367T1810000000013500000TK00000000000000000000000000472500                               Y TXUSA 2010B10N    N     20150224065038    0000000013500000                                                                                                                  
B330300570150223000467589                              60912120                      A             N                                                                                                                                                                                                        
B33040057015022300046758900570150540000378847CLH                 0000000000472500 POIC000375160                 INA   0000000013027500                                                                                                                   0000000000000000                                   
B33060057015022300046758993 0000000013500000                                                                                                                                                                                                                                                                
B33100057015022300046758974367T181BAMOD     0000000000000000 1000000000           0000000000                                                                                                                                                                                                                
B331700570150223000467589OK 1000001   NCLAUDE                   L                        KNOX                                                                                                                              454825377           34US 19490517222                                             
B33180057015022300046758967000001 M 1                                                                                                                                                                                                                                                                       
B331900570150223000467589                 H 203 NORTH BURNETT                                                                                        BAYTOWN                       TX775201105      US                                                                                                      
B332100570150223000467589FT                  P                                                                                                                                                                                                                                                              
B332200570150223000467589P463968384           34NTreva                                             Knox                                                                                                                               1                                                                     
B33230057015022300046758943                              195011190000000000000000 P11000000000222F                                                                                                                                                                                                          
B332700570150223000467589PA 1                                                                        0000021000000000                                                      NTRAVIS                                            GAYNOR                                                                        
B333000570150223000467589629200673                     34  526676                        24                                                                                                                                                                                                                 
B333100570150223000467589FT                  P                                                                                                                                                                                                                                                              
B333200570150223000467589Optional Death Benefit                                           00000            DB6                                                                                     0000000000000000       00                                 Optional Death Benef                           
B333200570150223000467589SecurePay Guaranteed Withdrawal Ben                              00000            GWBFX5S                                                                                 0000000000000000       00                                 SecurePay Guaranteed                           
B333200570150223000467589Complex Asset Allocation                                         00000            CAA                                                                                     0000000000000000       00                                 Complex Asset Alloca                           
B333500570150223000467589                    0000000000000000000000000074367T181FTGIS          00000000000000000100000000                                                                                                                                                                                   
B333500570150223000467589                    0000000000000000000000000074367T181FTMSH          00000000000000000100000000                                                                                                                                                                                   
B333500570150223000467589                    0000000000000000000000000074367T181FTRDI          00000000000000000150000000                                                                                                                                                                                   
B333500570150223000467589                    0000000000000000000000000074367T181LABDB          00000000000000000100000000                                                                                                                                                                                   
B333500570150223000467589                    0000000000000000000000000074367T181LMMCC          00000000000000000100000000                                                                                                                                                                                   
B333500570150223000467589                    0000000000000000000000000074367T181LMSCG          00000000000000000050000000                                                                                                                                                                                   
B333500570150223000467589                    0000000000000000000000000074367T181OPPCS          00000000000000000050000000                                                                                                                                                                                   
B333500570150223000467589                    0000000000000000000000000074367T181OPPGS          00000000000000000100000000                                                                                                                                                                                   
B333500570150223000467589                    0000000000000000000000000074367T181PIMTR          00000000000000000150000000                                                                                                                                                                                   
B333500570150223000467589                    0000000000000000000000000074367T181VKUIF          00000000000000000100000000                                                                                                                                                                                   
B333200570150223000467589Portfolio Rebalancing (Current Allo            20150227        2700000           QAR                                                                                      0000000000000000       00                                 Portfolio Rebalancin                           
B333500570150223000467589                    0000000000000000000000000074367T181FTGIS          00000000000000000100000000                                                                                                                                                                                   
B333500570150223000467589                    0000000000000000000000000074367T181FTMSH          00000000000000000100000000                                                                                                                                                                                   
B333500570150223000467589                    0000000000000000000000000074367T181FTRDI          00000000000000000150000000                                                                                                                                                                                   
B333500570150223000467589                    0000000000000000000000000074367T181LABDB          00000000000000000100000000                                                                                                                                                                                   
B333500570150223000467589                    0000000000000000000000000074367T181LMMCC          00000000000000000100000000                                                                                                                                                                                   
B333500570150223000467589                    0000000000000000000000000074367T181LMSCG          00000000000000000050000000                                                                                                                                                                                   
B333500570150223000467589                    0000000000000000000000000074367T181OPPCS          00000000000000000050000000                                                                                                                                                                                   
B333500570150223000467589                    0000000000000000000000000074367T181OPPGS          00000000000000000100000000                                                                                                                                                                                   
B333500570150223000467589                    0000000000000000000000000074367T181PIMTR          00000000000000000150000000                                                                                                                                                                                   
B333500570150223000467589                    0000000000000000000000000074367T181VKUIF          00000000000000000100000000                                                                                                                                                                                   
B334400570150223000467589467589                        00000103 Y0000                                                                                                                                                                                                                                       
B330100570150223000466328INA2015022374367T1810000000073694400Q200000000000000000000000000000000                               Y AZUSA 2010B10Y    Y     20150224065038    0000000073694400                                                                                                                  
B330300570150223000466328                              80612032                      A             N                                                                                                                                                                                                        
B33040057015022300046632800570150540000377884EXC                 0000000000000000 POIC000373278                 INA   0000000000000000                                                                                                                   0000000061132200                                   
B330600570150223000466328Q2 0000000061132200     N                                                                                                                                                                                                                                                          
B33100057015022300046632874367T181DCA2M     0000000000000000 1000000000           0000000000    0000000000                                                                                                                                                                                                  
B331300570150223000466328ZZXXXXXXXXXXXXXXXXXXXXJohn Hancock Annuities Service Ctr 8150019                                          0000000061132200 0000000000000000 0000000000000000 20100602                                                                                                              
B33140057015022300046632827 Drydock Avenue, Suite 3                                                                               Boston                        MA022102382                                                                                                                                 
B331500570150223000466328                                  NSUE                                               PEPPER                                                                                                                            000001523482779           34G2 1                            
B33040057015022300046632800570150540000377886EXC                 0000000000000000 POIC000373278                 INA   0000000000000000                                                                                                                   0000000003028000                                   
B330600570150223000466328Q2 0000000003028000     N                                                                                                                                                                                                                                                          
B331300570150223000466328ZZXXXXXXXXXXXXXXXXXXXXMetlife Annuities                  8100284600                                       0000000003028000 0000000000000000 0000000000000000 20090212                                                                                                              
B3314005701502230004663284700 Westown Parkway, Suite 200    Policy Services                                                       West Des Moines               IA50266                                                                                                                                     
B331500570150223000466328                                  NSUE                                               PEPPER                                                                                                                            000002523482779           34G2 1                            
B33040057015022300046632800570150540000378365EXC                 0000000000000000 POIC000373278                 INA   0000000000000000                                                                                                                   0000000009534200                                   
B330600570150223000466328Q2 0000000009534200     N                                                                                                                                                                                                                                                          
B331300570150223000466328ZZXXXXXXXXXXXXXXXXXXXXHartford Life Insurance Co         711204720                                        0000000009534200 0000000000000000 0000000000000000 20020722                                                                                                              
B331400570150223000466328745 West New Circle Road           Bldg 200, 1st Floor                                                   Lexington                     KY40511                                                                                                                                     
B331500570150223000466328                                  NSUE                                               PEPPER                                                                                                                            000003523482779           34G2 1                            
B331700570150223000466328HA 5000004   XSue Pepper Living Trust                                                                                  R                                                                          523482779           FIUS 20000222AB8                                             
B33180057015022300046632865000000   1                                                                                                                                                                                                                                                                       
B331900570150223000466328                 H 28702 CANAL                                                                                              WELLTON                       AZ853567045      US                                                                                                      
B332000570150223000466328HP9287853055                                                colie@amigo.net                                                                 BT                                                                                                                                     
B332100570150223000466328FT                  P                                                                                                                                                                                                                                                              
B331700570150223000466328G2 1000005   NSUE                                               PEPPER                                                                                                                            523482779           34US 19370823222                                             
B33180057015022300046632865000004 F 1                                                                                                                                                                                                                                                                       
B331900570150223000466328                 H 28702 CANAL                                                                                              WELLTON                       AZ853567045      US                                                                                                      
B332000570150223000466328HP9287853055                                                colie@amigo.net                                                                 BT                                                                                                                                     
B33170057015022300046632869 1000006   NSUE                                               PEPPER                                                                                                                            523482779           34US 19370823222                                             
B33180057015022300046632865000004 F 1                                                                                                                                                                                                                                                                       
B331900570150223000466328                 H 28702 CANAL                                                                                              WELLTON                       AZ853567045      US                                                                                                      
B332000570150223000466328HP9287853055                                                colie@amigo.net                                                                 BT                                                                                                                                     
B33170057015022300046632869 1000007   NRon                      E                        Pepper                                                                                                                            523748359           34US 19630826222                                             
B33180057015022300046632865000004 M 1                                                                                                                                                                                                                                                                       
B331900570150223000466328                 H 514 Americas Way                                                                                         Box Elder                     SD577197600      US                                                                                                      
B332000570150223000466328HP7198500801                                                ronepepper@gmail.com                                                            BT                                                                                                                                     
B332200570150223000466328P523748359           34NRon                      E                        Pepper                                                                                                                             1                                                                     
B33230057015022300046632865                              196308260000000000000000 P11000000000222MTE7198500801        ronepepper@gmail.com                                                                                                                                                                  
B332400570150223000466328514 Americas Way                                                                                         Box Elder                     SD577197600      US                                                                                                                         
B332700570150223000466328PA 1                                                                        0000081000000000                                                      NJEFF                                              KECK                                                                          
B333000570150223000466328515563249                     34  806691                        24                                                                                                                                                                                                                 
B333100570150223000466328FT                  P                                                                                                                                                                                                                                                              
B333200570150223000466328Optional Death Benefit                                           00000            DB6                                                                                     0000000000000000       00                                 Optional Death Benef                           
B333200570150223000466328Controlled Payout                                                00000            DBO                                                                                     0000000000000000       00                                 Controlled Payout                              
B333200570150223000466328Special Dollar Cost Averaging                  20150315        1500012MO         4DA1                                                                                     0000000000000000       00                                 Special Dollar Cost                            
B33350057015022300046632874367T181DCA2M      00000000000000001000000000                        00000000000000000000000000                                                                                                                                                                                   
B333500570150223000466328                    0000000000000000000000000074367T181MGI09          00000000000000001000000000                                                                                                                                                                                   
B333200570150223000466328Portfolio Rebalancing (Current Allo            20160301        0100000           7AR                                                                                      0000000000000000       00                                 Portfolio Rebalancin                           
B333500570150223000466328                    0000000000000000000000000074367T181DCA2M          00000000000000001000000000                                                                                                                                                                                   
B334400570150223000466328466328                        00000103 Y0000                                                                                                                                                                                                                                       
B324503Protective Life Insurance          4503Protective Life Insurance          SUB00000000010000000001CPL                                                                                                                                                                                                 
B350100570150223000470874INA        74367T1810000000001000000TK00000000000000000000000000050000                                                         20150224065038                                                                                                                                      
B350300570150223000470874PD2512689                     39212139                      A                                                                                                                                                                                                                      
B35040057015022300047087400570150540000381276CLH                 0000000000050000 POIC000376416                 INA   0000000000950000                                                                                                                   0000000000000000                                   
B35060057015022300047087493 0000000001000000                                                                                                                                                                                                                                                                
B351700570150223000470874HA 1000001   NKENNETH                                           FORD                                                                                                                              038387398           34                                                           
B351700570150223000470874G2 1000002   NKENNETH                                           FORD                                                                                                                              038387398           34                                                           
B352700570150223000470874PA 1                                                                        0000031000000000                                                      NJOHN                                              PEACOCK                                                                       
B353000570150223000470874209507138                     34  392660                        24                                                                                                                                                                                                                 
B300075201502240550440001        20150224BFR0Blue Frog Solutions                0075LPL Financial                      0075      LPL                                PRM000000000156P                                                                                                                        
B324503Protective Life Insurance Company  4503Protective Life Insurance Company  APP00000000050000000005CPL                                                                                                                                                                                                 
B330100750150550500000110INA2015022074367M1110000000020000000TK00000000000000000000000001200000                                 UT    2010B10N Y  NN    20150224062528    0000000000000000                                                                                                                  
B330300750150550500000110                              47593813                      A                                                                                                                                                                                                                      
B33040075015055050000011000750150550500000130CLH                 0000000001200000 FMZCCWG6HR001                 INA   0000000018800000                                                                                                                   0000000000000000                                   
B33060075015055050000011093 0000000020000000                                                                                                                                                                                                                                                                
B33100075015055050000011074367M111FIIND     0000000000000000 0400000000           0000000000                                                                                                                                                                                                                
B33100075015055050000011074367M111FTMSH     0000000000000000 0100000000           0000000000                                                                                                                                                                                                                
B33100075015055050000011074367M111GUGFR     0000000000000000 0100000000           0000000000                                                                                                                                                                                                                
B33100075015055050000011074367M111IBRAA     0000000000000000 0100000000           0000000000                                                                                                                                                                                                                
B33100075015055050000011074367M111LABDB     0000000000000000 0100000000           0000000000                                                                                                                                                                                                                
B33100075015055050000011074367M111OPPSB     0000000000000000 0100000000           0000000000                                                                                                                                                                                                                
B33100075015055050000011074367M111FTGIS     0000000000000000 0100000000           0000000000                                                                                                                                                                                                                
B331700750150550500000110OK 1000001   NSusan                                             Sperry                                                                                                                            529232607           34US 19690902222                                             
B33180075015055050000011067000001 F 1                                                                                                                                                                                                                                                                       
B331900750150550500000110                 H 832 E. 3050 N.                                                                                           Lehi                          UT84043          US                                                                                                      
B332000750150550500000110CP8014044511                                                                                                                                                                                                                                                                       
B332100750150550500000110FT                  P                                                                                                                                                                                                                                                              
B332200750150550500000110P646203837           34NTristen                  E                        Sperry                                                                                                                            R1                                                                     
B33230075015055050000011002                              199401170000000000000000 P10340000000222F                                                                                                                                                                                                          
B332400750150550500000110832 E. 3050 N.                                                                                           Lehi                          UT84043                                                                                                                                     
B332200750150550500000110P647406759           34NTyler                    J                        Sperry                                                                                                                            R1                                                                     
B33230075015055050000011002                              199804030000000000000000 P10330000000222M                                                                                                                                                                                                          
B332400750150550500000110832 E. 3050 N.                                                                                           Lehi                          UT84043                                                                                                                                     
B332200750150550500000110P646523800           34NTanner                   J                        Sperry                                                                                                                            R1                                                                     
B33230075015055050000011002                              200003160000000000000000 P10330000000222M                                                                                                                                                                                                          
B332400750150550500000110832 E. 3050 N.                                                                                           Lehi                          UT84043                                                                                                                                     
B332700750150550500000110PA 1                                                                        0000021000000000                                                      NJORDAN                                            BOYLE                                                                         
B3329007501505505000001108013737840        WP8013738826        FX                                                                                                                                                                                                                                           
B333000750150550500000110519086331                     34  H5JB                          24                                                                                                                                                                                                                 
B333100750150550500000110FT                  P                                                                                                                                                                                                                                                              
B333200750150550500000110Surrender Charge - 7 / 6 / 6 / 5 /                               00000            SC                                                                                      0000000000000000       00                                 Withdrawals in exces                           
B333200750150550500000110Current Account Value                                            00000            DB1                                                                                     0000000000000000       00                                 Current Account Valu                           
B333200750150550500000110Allocation Adjustment                                            00000            ALLOC                                                                                   0000000000000000       00                                 Allocation Adjustmen                           
B330100750150550500000111INA2015022374367T2310000000010000000TK00000000000000000000000000600000                                 AL    2010B10Y Y  NN    20150224062528    0000000000000000                                                                                                                  
B330300750150550500000111                              74839786                      B                                                                                                                                                                                                                      
B33040075015055050000011100750150550500000131CLH                 0000000000600000 FM4BSRCDSW001                 INA   0000000009400000                                                                                                                   0000000000000000                                   
B33060075015055050000011193 0000000010000000                                                                                                                                                                                                                                                                
B33100075015055050000011174367T231BAMOD     0000000000000000 1000000000           0000000000                                                                                                                                                                                                                
B331700750150550500000111OK 1000001   NCarol                    A                        Key                                                                                                                               401649985           34US 19520302222                                             
B33180075015055050000011167000001 F 1                                                                                                                                                                                                                                                                       
B331900750150550500000111                 H 2416Thornmor DR SW                                                                                       Huntsville                    AL35803          US                                                                                                      
B332000750150550500000111CP2566518067                                                                                                                                                                                                                                                                       
B332200750150550500000111P                      NLaura                                             Debiasi                                                                                                                           R1                                                                     
B33230075015055050000011102                              198308070000000000000000 P10500000000222F                                                                                                                                                                                                          
B332200750150550500000111P                      NMegan                                             Mills                                                                                                                             R1                                                                     
B33230075015055050000011102                              198509120000000000000000 P10500000000222F                                                                                                                                                                                                          
B332700750150550500000111PA 1                                                                        0000020420000000                                                      NMARK                                              RUSSELL                                                                       
